{"contracts/Staking.sol":{"Staking":{"abi":[{"inputs":[{"internalType":"contract TestToken","name":"_testToken","type":"address"}],"stateMutability":"payable","type":"constructor"},{"inputs":[],"name":"defaultAPY","outputs":[{"internalType":"uint256","name":"","type":"uint256"}],"stateMutability":"view","type":"function"},{"inputs":[{"internalType":"address","name":"","type":"address"}],"name":"hasStaked","outputs":[{"internalType":"bool","name":"","type":"bool"}],"stateMutability":"view","type":"function"},{"inputs":[{"internalType":"address","name":"","type":"address"}],"name":"isStakingAtm","outputs":[{"internalType":"bool","name":"","type":"bool"}],"stateMutability":"view","type":"function"},{"inputs":[],"name":"name","outputs":[{"internalType":"string","name":"","type":"string"}],"stateMutability":"view","type":"function"},{"inputs":[],"name":"owner","outputs":[{"internalType":"address","name":"","type":"address"}],"stateMutability":"view","type":"function"},{"inputs":[],"name":"redistributeRewards","outputs":[],"stateMutability":"nonpayable","type":"function"},{"inputs":[{"internalType":"uint256","name":"_amount","type":"uint256"}],"name":"stakeTokens","outputs":[],"stateMutability":"nonpayable","type":"function"},{"inputs":[{"internalType":"uint256","name":"","type":"uint256"}],"name":"stakers","outputs":[{"internalType":"address","name":"","type":"address"}],"stateMutability":"view","type":"function"},{"inputs":[{"internalType":"address","name":"","type":"address"}],"name":"stakingBalance","outputs":[{"internalType":"uint256","name":"","type":"uint256"}],"stateMutability":"view","type":"function"},{"inputs":[],"name":"testToken","outputs":[{"internalType":"contract TestToken","name":"","type":"address"}],"stateMutability":"view","type":"function"},{"inputs":[],"name":"totalStaked","outputs":[{"internalType":"uint256","name":"","type":"uint256"}],"stateMutability":"view","type":"function"},{"inputs":[],"name":"unstakeTokens","outputs":[],"stateMutability":"nonpayable","type":"function"}],"evm":{"bytecode":{"linkReferences":{},"object":"60806040526040518060400160405280601a81526020017f5969656c64204661726d696e67202f20546f6b656e2064417070000000000000815250600090816200004a919062000378565b506064600355604051620016c1380380620016c18339818101604052810190620000759190620004dd565b80600160006101000a81548173ffffffffffffffffffffffffffffffffffffffff021916908373ffffffffffffffffffffffffffffffffffffffff16021790555033600260006101000a81548173ffffffffffffffffffffffffffffffffffffffff021916908373ffffffffffffffffffffffffffffffffffffffff160217905550506200050f565b600081519050919050565b7f4e487b7100000000000000000000000000000000000000000000000000000000600052604160045260246000fd5b7f4e487b7100000000000000000000000000000000000000000000000000000000600052602260045260246000fd5b600060028204905060018216806200018057607f821691505b60208210810362000196576200019562000138565b5b50919050565b60008190508160005260206000209050919050565b60006020601f8301049050919050565b600082821b905092915050565b600060088302620002007fffffffffffffffffffffffffffffffffffffffffffffffffffffffffffffffff82620001c1565b6200020c8683620001c1565b95508019841693508086168417925050509392505050565b6000819050919050565b6000819050919050565b600062000259620002536200024d8462000224565b6200022e565b62000224565b9050919050565b6000819050919050565b620002758362000238565b6200028d620002848262000260565b848454620001ce565b825550505050565b600090565b620002a462000295565b620002b18184846200026a565b505050565b5b81811015620002d957620002cd6000826200029a565b600181019050620002b7565b5050565b601f8211156200032857620002f2816200019c565b620002fd84620001b1565b810160208510156200030d578190505b620003256200031c85620001b1565b830182620002b6565b50505b505050565b600082821c905092915050565b60006200034d600019846008026200032d565b1980831691505092915050565b60006200036883836200033a565b9150826002028217905092915050565b6200038382620000fe565b67ffffffffffffffff8111156200039f576200039e62000109565b5b620003ab825462000167565b620003b8828285620002dd565b600060209050601f831160018114620003f05760008415620003db578287015190505b620003e785826200035a565b86555062000457565b601f19841662000400866200019c565b60005b828110156200042a5784890151825560018201915060208501945060208101905062000403565b868310156200044a578489015162000446601f8916826200033a565b8355505b6001600288020188555050505b505050505050565b600080fd5b600073ffffffffffffffffffffffffffffffffffffffff82169050919050565b6000620004918262000464565b9050919050565b6000620004a58262000484565b9050919050565b620004b78162000498565b8114620004c357600080fd5b50565b600081519050620004d781620004ac565b92915050565b600060208284031215620004f657620004f56200045f565b5b60006200050684828501620004c6565b91505092915050565b6111a2806200051f6000396000f3fe608060405234801561001057600080fd5b50600436106100b45760003560e01c80639bd62932116100715780639bd629321461017d578063a5ce413b146101ad578063b4e892af146101b7578063c93c8f34146101d5578063cc8da8b814610205578063fd5e6dd11461020f576100b4565b806306fdde03146100b957806345bc78ab146100d75780636895179d146101075780637547c7a314610125578063817b1cd2146101415780638da5cb5b1461015f575b600080fd5b6100c161023f565b6040516100ce9190610b20565b60405180910390f35b6100f160048036038101906100ec9190610ba5565b6102cd565b6040516100fe9190610beb565b60405180910390f35b61010f6102e5565b60405161011c9190610c65565b60405180910390f35b61013f600480360381019061013a9190610cac565b61030b565b005b6101496105fb565b6040516101569190610beb565b60405180910390f35b610167610601565b6040516101749190610ce8565b60405180910390f35b61019760048036038101906101929190610ba5565b610627565b6040516101a49190610d1e565b60405180910390f35b6101b5610647565b005b6101bf610823565b6040516101cc9190610beb565b60405180910390f35b6101ef60048036038101906101ea9190610ba5565b610829565b6040516101fc9190610d1e565b60405180910390f35b61020d610849565b005b61022960048036038101906102249190610cac565b610a51565b6040516102369190610ce8565b60405180910390f35b6000805461024c90610d68565b80601f016020809104026020016040519081016040528092919081815260200182805461027890610d68565b80156102c55780601f1061029a576101008083540402835291602001916102c5565b820191906000526020600020905b8154815290600101906020018083116102a857829003601f168201915b505050505081565b60056020528060005260406000206000915090505481565b600160009054906101000a900473ffffffffffffffffffffffffffffffffffffffff1681565b6000811161034e576040517f08c379a000000000000000000000000000000000000000000000000000000000815260040161034590610de5565b60405180910390fd5b600160009054906101000a900473ffffffffffffffffffffffffffffffffffffffff1673ffffffffffffffffffffffffffffffffffffffff166323b872dd3330846040518463ffffffff1660e01b81526004016103ad93929190610e05565b6020604051808303816000875af11580156103cc573d6000803e3d6000fd5b505050506040513d601f19601f820116820180604052508101906103f09190610e68565b50806004546103ff9190610ec4565b60048190555080600560003373ffffffffffffffffffffffffffffffffffffffff1673ffffffffffffffffffffffffffffffffffffffff168152602001908152602001600020546104509190610ec4565b600560003373ffffffffffffffffffffffffffffffffffffffff1673ffffffffffffffffffffffffffffffffffffffff16815260200190815260200160002081905550600660003373ffffffffffffffffffffffffffffffffffffffff1673ffffffffffffffffffffffffffffffffffffffff16815260200190815260200160002060009054906101000a900460ff16610548576008339080600181540180825580915050600190039060005260206000200160009091909190916101000a81548173ffffffffffffffffffffffffffffffffffffffff021916908373ffffffffffffffffffffffffffffffffffffffff1602179055505b6001600660003373ffffffffffffffffffffffffffffffffffffffff1673ffffffffffffffffffffffffffffffffffffffff16815260200190815260200160002060006101000a81548160ff0219169083151502179055506001600760003373ffffffffffffffffffffffffffffffffffffffff1673ffffffffffffffffffffffffffffffffffffffff16815260200190815260200160002060006101000a81548160ff02191690831515021790555050565b60045481565b600260009054906101000a900473ffffffffffffffffffffffffffffffffffffffff1681565b60076020528060005260406000206000915054906101000a900460ff1681565b6000600560003373ffffffffffffffffffffffffffffffffffffffff1673ffffffffffffffffffffffffffffffffffffffff168152602001908152602001600020549050600081116106ce576040517f08c379a00000000000000000000000000000000000000000000000000000000081526004016106c590610f44565b60405180910390fd5b600160009054906101000a900473ffffffffffffffffffffffffffffffffffffffff1673ffffffffffffffffffffffffffffffffffffffff1663a9059cbb33836040518363ffffffff1660e01b815260040161072b929190610f64565b6020604051808303816000875af115801561074a573d6000803e3d6000fd5b505050506040513d601f19601f8201168201806040525081019061076e9190610e68565b508060045461077d9190610f8d565b6004819055506000600560003373ffffffffffffffffffffffffffffffffffffffff1673ffffffffffffffffffffffffffffffffffffffff168152602001908152602001600020819055506000600760003373ffffffffffffffffffffffffffffffffffffffff1673ffffffffffffffffffffffffffffffffffffffff16815260200190815260200160002060006101000a81548160ff02191690831515021790555050565b60035481565b60066020528060005260406000206000915054906101000a900460ff1681565b600260009054906101000a900473ffffffffffffffffffffffffffffffffffffffff1673ffffffffffffffffffffffffffffffffffffffff163373ffffffffffffffffffffffffffffffffffffffff16146108d9576040517f08c379a00000000000000000000000000000000000000000000000000000000081526004016108d090611033565b60405180910390fd5b60005b600880549050811015610a4e576000600882815481106108ff576108fe611053565b5b9060005260206000200160009054906101000a900473ffffffffffffffffffffffffffffffffffffffff1690506000600354600560008473ffffffffffffffffffffffffffffffffffffffff1673ffffffffffffffffffffffffffffffffffffffff1681526020019081526020016000205461097b9190611082565b9050620186a08161098c91906110f3565b90506000811115610a3957600160009054906101000a900473ffffffffffffffffffffffffffffffffffffffff1673ffffffffffffffffffffffffffffffffffffffff1663a9059cbb83836040518363ffffffff1660e01b81526004016109f4929190610f64565b6020604051808303816000875af1158015610a13573d6000803e3d6000fd5b505050506040513d601f19601f82011682018060405250810190610a379190610e68565b505b50508080610a4690611124565b9150506108dc565b50565b60088181548110610a6157600080fd5b906000526020600020016000915054906101000a900473ffffffffffffffffffffffffffffffffffffffff1681565b600081519050919050565b600082825260208201905092915050565b60005b83811015610aca578082015181840152602081019050610aaf565b60008484015250505050565b6000601f19601f8301169050919050565b6000610af282610a90565b610afc8185610a9b565b9350610b0c818560208601610aac565b610b1581610ad6565b840191505092915050565b60006020820190508181036000830152610b3a8184610ae7565b905092915050565b600080fd5b600073ffffffffffffffffffffffffffffffffffffffff82169050919050565b6000610b7282610b47565b9050919050565b610b8281610b67565b8114610b8d57600080fd5b50565b600081359050610b9f81610b79565b92915050565b600060208284031215610bbb57610bba610b42565b5b6000610bc984828501610b90565b91505092915050565b6000819050919050565b610be581610bd2565b82525050565b6000602082019050610c006000830184610bdc565b92915050565b6000819050919050565b6000610c2b610c26610c2184610b47565b610c06565b610b47565b9050919050565b6000610c3d82610c10565b9050919050565b6000610c4f82610c32565b9050919050565b610c5f81610c44565b82525050565b6000602082019050610c7a6000830184610c56565b92915050565b610c8981610bd2565b8114610c9457600080fd5b50565b600081359050610ca681610c80565b92915050565b600060208284031215610cc257610cc1610b42565b5b6000610cd084828501610c97565b91505092915050565b610ce281610b67565b82525050565b6000602082019050610cfd6000830184610cd9565b92915050565b60008115159050919050565b610d1881610d03565b82525050565b6000602082019050610d336000830184610d0f565b92915050565b7f4e487b7100000000000000000000000000000000000000000000000000000000600052602260045260246000fd5b60006002820490506001821680610d8057607f821691505b602082108103610d9357610d92610d39565b5b50919050565b7f616d6f756e742063616e6e6f7420626520300000000000000000000000000000600082015250565b6000610dcf601283610a9b565b9150610dda82610d99565b602082019050919050565b60006020820190508181036000830152610dfe81610dc2565b9050919050565b6000606082019050610e1a6000830186610cd9565b610e276020830185610cd9565b610e346040830184610bdc565b949350505050565b610e4581610d03565b8114610e5057600080fd5b50565b600081519050610e6281610e3c565b92915050565b600060208284031215610e7e57610e7d610b42565b5b6000610e8c84828501610e53565b91505092915050565b7f4e487b7100000000000000000000000000000000000000000000000000000000600052601160045260246000fd5b6000610ecf82610bd2565b9150610eda83610bd2565b9250828201905080821115610ef257610ef1610e95565b5b92915050565b7f616d6f756e742068617320746f206265206d6f7265207468616e203000000000600082015250565b6000610f2e601c83610a9b565b9150610f3982610ef8565b602082019050919050565b60006020820190508181036000830152610f5d81610f21565b9050919050565b6000604082019050610f796000830185610cd9565b610f866020830184610bdc565b9392505050565b6000610f9882610bd2565b9150610fa383610bd2565b9250828203905081811115610fbb57610fba610e95565b5b92915050565b7f4f6e6c7920636f6e74726163742063726561746f722063616e2072656469737460008201527f7269627574650000000000000000000000000000000000000000000000000000602082015250565b600061101d602683610a9b565b915061102882610fc1565b604082019050919050565b6000602082019050818103600083015261104c81611010565b9050919050565b7f4e487b7100000000000000000000000000000000000000000000000000000000600052603260045260246000fd5b600061108d82610bd2565b915061109883610bd2565b92508282026110a681610bd2565b915082820484148315176110bd576110bc610e95565b5b5092915050565b7f4e487b7100000000000000000000000000000000000000000000000000000000600052601260045260246000fd5b60006110fe82610bd2565b915061110983610bd2565b925082611119576111186110c4565b5b828204905092915050565b600061112f82610bd2565b91507fffffffffffffffffffffffffffffffffffffffffffffffffffffffffffffffff820361116157611160610e95565b5b60018201905091905056fea2646970667358221220a1c552d0fd8c83560cc55fa070b49c37954b8dfd10b30cb159c667068128944c64736f6c63430008110033","opcodes":"PUSH1 0x80 PUSH1 0x40 MSTORE PUSH1 0x40 MLOAD DUP1 PUSH1 0x40 ADD PUSH1 0x40 MSTORE DUP1 PUSH1 0x1A DUP2 MSTORE PUSH1 0x20 ADD PUSH32 0x5969656C64204661726D696E67202F20546F6B656E2064417070000000000000 DUP2 MSTORE POP PUSH1 0x0 SWAP1 DUP2 PUSH3 0x4A SWAP2 SWAP1 PUSH3 0x378 JUMP JUMPDEST POP PUSH1 0x64 PUSH1 0x3 SSTORE PUSH1 0x40 MLOAD PUSH3 0x16C1 CODESIZE SUB DUP1 PUSH3 0x16C1 DUP4 CODECOPY DUP2 DUP2 ADD PUSH1 0x40 MSTORE DUP2 ADD SWAP1 PUSH3 0x75 SWAP2 SWAP1 PUSH3 0x4DD JUMP JUMPDEST DUP1 PUSH1 0x1 PUSH1 0x0 PUSH2 0x100 EXP DUP2 SLOAD DUP2 PUSH20 0xFFFFFFFFFFFFFFFFFFFFFFFFFFFFFFFFFFFFFFFF MUL NOT AND SWAP1 DUP4 PUSH20 0xFFFFFFFFFFFFFFFFFFFFFFFFFFFFFFFFFFFFFFFF AND MUL OR SWAP1 SSTORE POP CALLER PUSH1 0x2 PUSH1 0x0 PUSH2 0x100 EXP DUP2 SLOAD DUP2 PUSH20 0xFFFFFFFFFFFFFFFFFFFFFFFFFFFFFFFFFFFFFFFF MUL NOT AND SWAP1 DUP4 PUSH20 0xFFFFFFFFFFFFFFFFFFFFFFFFFFFFFFFFFFFFFFFF AND MUL OR SWAP1 SSTORE POP POP PUSH3 0x50F JUMP JUMPDEST PUSH1 0x0 DUP2 MLOAD SWAP1 POP SWAP2 SWAP1 POP JUMP JUMPDEST PUSH32 0x4E487B7100000000000000000000000000000000000000000000000000000000 PUSH1 0x0 MSTORE PUSH1 0x41 PUSH1 0x4 MSTORE PUSH1 0x24 PUSH1 0x0 REVERT JUMPDEST PUSH32 0x4E487B7100000000000000000000000000000000000000000000000000000000 PUSH1 0x0 MSTORE PUSH1 0x22 PUSH1 0x4 MSTORE PUSH1 0x24 PUSH1 0x0 REVERT JUMPDEST PUSH1 0x0 PUSH1 0x2 DUP3 DIV SWAP1 POP PUSH1 0x1 DUP3 AND DUP1 PUSH3 0x180 JUMPI PUSH1 0x7F DUP3 AND SWAP2 POP JUMPDEST PUSH1 0x20 DUP3 LT DUP2 SUB PUSH3 0x196 JUMPI PUSH3 0x195 PUSH3 0x138 JUMP JUMPDEST JUMPDEST POP SWAP2 SWAP1 POP JUMP JUMPDEST PUSH1 0x0 DUP2 SWAP1 POP DUP2 PUSH1 0x0 MSTORE PUSH1 0x20 PUSH1 0x0 KECCAK256 SWAP1 POP SWAP2 SWAP1 POP JUMP JUMPDEST PUSH1 0x0 PUSH1 0x20 PUSH1 0x1F DUP4 ADD DIV SWAP1 POP SWAP2 SWAP1 POP JUMP JUMPDEST PUSH1 0x0 DUP3 DUP3 SHL SWAP1 POP SWAP3 SWAP2 POP POP JUMP JUMPDEST PUSH1 0x0 PUSH1 0x8 DUP4 MUL PUSH3 0x200 PUSH32 0xFFFFFFFFFFFFFFFFFFFFFFFFFFFFFFFFFFFFFFFFFFFFFFFFFFFFFFFFFFFFFFFF DUP3 PUSH3 0x1C1 JUMP JUMPDEST PUSH3 0x20C DUP7 DUP4 PUSH3 0x1C1 JUMP JUMPDEST SWAP6 POP DUP1 NOT DUP5 AND SWAP4 POP DUP1 DUP7 AND DUP5 OR SWAP3 POP POP POP SWAP4 SWAP3 POP POP POP JUMP JUMPDEST PUSH1 0x0 DUP2 SWAP1 POP SWAP2 SWAP1 POP JUMP JUMPDEST PUSH1 0x0 DUP2 SWAP1 POP SWAP2 SWAP1 POP JUMP JUMPDEST PUSH1 0x0 PUSH3 0x259 PUSH3 0x253 PUSH3 0x24D DUP5 PUSH3 0x224 JUMP JUMPDEST PUSH3 0x22E JUMP JUMPDEST PUSH3 0x224 JUMP JUMPDEST SWAP1 POP SWAP2 SWAP1 POP JUMP JUMPDEST PUSH1 0x0 DUP2 SWAP1 POP SWAP2 SWAP1 POP JUMP JUMPDEST PUSH3 0x275 DUP4 PUSH3 0x238 JUMP JUMPDEST PUSH3 0x28D PUSH3 0x284 DUP3 PUSH3 0x260 JUMP JUMPDEST DUP5 DUP5 SLOAD PUSH3 0x1CE JUMP JUMPDEST DUP3 SSTORE POP POP POP POP JUMP JUMPDEST PUSH1 0x0 SWAP1 JUMP JUMPDEST PUSH3 0x2A4 PUSH3 0x295 JUMP JUMPDEST PUSH3 0x2B1 DUP2 DUP5 DUP5 PUSH3 0x26A JUMP JUMPDEST POP POP POP JUMP JUMPDEST JUMPDEST DUP2 DUP2 LT ISZERO PUSH3 0x2D9 JUMPI PUSH3 0x2CD PUSH1 0x0 DUP3 PUSH3 0x29A JUMP JUMPDEST PUSH1 0x1 DUP2 ADD SWAP1 POP PUSH3 0x2B7 JUMP JUMPDEST POP POP JUMP JUMPDEST PUSH1 0x1F DUP3 GT ISZERO PUSH3 0x328 JUMPI PUSH3 0x2F2 DUP2 PUSH3 0x19C JUMP JUMPDEST PUSH3 0x2FD DUP5 PUSH3 0x1B1 JUMP JUMPDEST DUP2 ADD PUSH1 0x20 DUP6 LT ISZERO PUSH3 0x30D JUMPI DUP2 SWAP1 POP JUMPDEST PUSH3 0x325 PUSH3 0x31C DUP6 PUSH3 0x1B1 JUMP JUMPDEST DUP4 ADD DUP3 PUSH3 0x2B6 JUMP JUMPDEST POP POP JUMPDEST POP POP POP JUMP JUMPDEST PUSH1 0x0 DUP3 DUP3 SHR SWAP1 POP SWAP3 SWAP2 POP POP JUMP JUMPDEST PUSH1 0x0 PUSH3 0x34D PUSH1 0x0 NOT DUP5 PUSH1 0x8 MUL PUSH3 0x32D JUMP JUMPDEST NOT DUP1 DUP4 AND SWAP2 POP POP SWAP3 SWAP2 POP POP JUMP JUMPDEST PUSH1 0x0 PUSH3 0x368 DUP4 DUP4 PUSH3 0x33A JUMP JUMPDEST SWAP2 POP DUP3 PUSH1 0x2 MUL DUP3 OR SWAP1 POP SWAP3 SWAP2 POP POP JUMP JUMPDEST PUSH3 0x383 DUP3 PUSH3 0xFE JUMP JUMPDEST PUSH8 0xFFFFFFFFFFFFFFFF DUP2 GT ISZERO PUSH3 0x39F JUMPI PUSH3 0x39E PUSH3 0x109 JUMP JUMPDEST JUMPDEST PUSH3 0x3AB DUP3 SLOAD PUSH3 0x167 JUMP JUMPDEST PUSH3 0x3B8 DUP3 DUP3 DUP6 PUSH3 0x2DD JUMP JUMPDEST PUSH1 0x0 PUSH1 0x20 SWAP1 POP PUSH1 0x1F DUP4 GT PUSH1 0x1 DUP2 EQ PUSH3 0x3F0 JUMPI PUSH1 0x0 DUP5 ISZERO PUSH3 0x3DB JUMPI DUP3 DUP8 ADD MLOAD SWAP1 POP JUMPDEST PUSH3 0x3E7 DUP6 DUP3 PUSH3 0x35A JUMP JUMPDEST DUP7 SSTORE POP PUSH3 0x457 JUMP JUMPDEST PUSH1 0x1F NOT DUP5 AND PUSH3 0x400 DUP7 PUSH3 0x19C JUMP JUMPDEST PUSH1 0x0 JUMPDEST DUP3 DUP2 LT ISZERO PUSH3 0x42A JUMPI DUP5 DUP10 ADD MLOAD DUP3 SSTORE PUSH1 0x1 DUP3 ADD SWAP2 POP PUSH1 0x20 DUP6 ADD SWAP5 POP PUSH1 0x20 DUP2 ADD SWAP1 POP PUSH3 0x403 JUMP JUMPDEST DUP7 DUP4 LT ISZERO PUSH3 0x44A JUMPI DUP5 DUP10 ADD MLOAD PUSH3 0x446 PUSH1 0x1F DUP10 AND DUP3 PUSH3 0x33A JUMP JUMPDEST DUP4 SSTORE POP JUMPDEST PUSH1 0x1 PUSH1 0x2 DUP9 MUL ADD DUP9 SSTORE POP POP POP JUMPDEST POP POP POP POP POP POP JUMP JUMPDEST PUSH1 0x0 DUP1 REVERT JUMPDEST PUSH1 0x0 PUSH20 0xFFFFFFFFFFFFFFFFFFFFFFFFFFFFFFFFFFFFFFFF DUP3 AND SWAP1 POP SWAP2 SWAP1 POP JUMP JUMPDEST PUSH1 0x0 PUSH3 0x491 DUP3 PUSH3 0x464 JUMP JUMPDEST SWAP1 POP SWAP2 SWAP1 POP JUMP JUMPDEST PUSH1 0x0 PUSH3 0x4A5 DUP3 PUSH3 0x484 JUMP JUMPDEST SWAP1 POP SWAP2 SWAP1 POP JUMP JUMPDEST PUSH3 0x4B7 DUP2 PUSH3 0x498 JUMP JUMPDEST DUP2 EQ PUSH3 0x4C3 JUMPI PUSH1 0x0 DUP1 REVERT JUMPDEST POP JUMP JUMPDEST PUSH1 0x0 DUP2 MLOAD SWAP1 POP PUSH3 0x4D7 DUP2 PUSH3 0x4AC JUMP JUMPDEST SWAP3 SWAP2 POP POP JUMP JUMPDEST PUSH1 0x0 PUSH1 0x20 DUP3 DUP5 SUB SLT ISZERO PUSH3 0x4F6 JUMPI PUSH3 0x4F5 PUSH3 0x45F JUMP JUMPDEST JUMPDEST PUSH1 0x0 PUSH3 0x506 DUP5 DUP3 DUP6 ADD PUSH3 0x4C6 JUMP JUMPDEST SWAP2 POP POP SWAP3 SWAP2 POP POP JUMP JUMPDEST PUSH2 0x11A2 DUP1 PUSH3 0x51F PUSH1 0x0 CODECOPY PUSH1 0x0 RETURN INVALID PUSH1 0x80 PUSH1 0x40 MSTORE CALLVALUE DUP1 ISZERO PUSH2 0x10 JUMPI PUSH1 0x0 DUP1 REVERT JUMPDEST POP PUSH1 0x4 CALLDATASIZE LT PUSH2 0xB4 JUMPI PUSH1 0x0 CALLDATALOAD PUSH1 0xE0 SHR DUP1 PUSH4 0x9BD62932 GT PUSH2 0x71 JUMPI DUP1 PUSH4 0x9BD62932 EQ PUSH2 0x17D JUMPI DUP1 PUSH4 0xA5CE413B EQ PUSH2 0x1AD JUMPI DUP1 PUSH4 0xB4E892AF EQ PUSH2 0x1B7 JUMPI DUP1 PUSH4 0xC93C8F34 EQ PUSH2 0x1D5 JUMPI DUP1 PUSH4 0xCC8DA8B8 EQ PUSH2 0x205 JUMPI DUP1 PUSH4 0xFD5E6DD1 EQ PUSH2 0x20F JUMPI PUSH2 0xB4 JUMP JUMPDEST DUP1 PUSH4 0x6FDDE03 EQ PUSH2 0xB9 JUMPI DUP1 PUSH4 0x45BC78AB EQ PUSH2 0xD7 JUMPI DUP1 PUSH4 0x6895179D EQ PUSH2 0x107 JUMPI DUP1 PUSH4 0x7547C7A3 EQ PUSH2 0x125 JUMPI DUP1 PUSH4 0x817B1CD2 EQ PUSH2 0x141 JUMPI DUP1 PUSH4 0x8DA5CB5B EQ PUSH2 0x15F JUMPI JUMPDEST PUSH1 0x0 DUP1 REVERT JUMPDEST PUSH2 0xC1 PUSH2 0x23F JUMP JUMPDEST PUSH1 0x40 MLOAD PUSH2 0xCE SWAP2 SWAP1 PUSH2 0xB20 JUMP JUMPDEST PUSH1 0x40 MLOAD DUP1 SWAP2 SUB SWAP1 RETURN JUMPDEST PUSH2 0xF1 PUSH1 0x4 DUP1 CALLDATASIZE SUB DUP2 ADD SWAP1 PUSH2 0xEC SWAP2 SWAP1 PUSH2 0xBA5 JUMP JUMPDEST PUSH2 0x2CD JUMP JUMPDEST PUSH1 0x40 MLOAD PUSH2 0xFE SWAP2 SWAP1 PUSH2 0xBEB JUMP JUMPDEST PUSH1 0x40 MLOAD DUP1 SWAP2 SUB SWAP1 RETURN JUMPDEST PUSH2 0x10F PUSH2 0x2E5 JUMP JUMPDEST PUSH1 0x40 MLOAD PUSH2 0x11C SWAP2 SWAP1 PUSH2 0xC65 JUMP JUMPDEST PUSH1 0x40 MLOAD DUP1 SWAP2 SUB SWAP1 RETURN JUMPDEST PUSH2 0x13F PUSH1 0x4 DUP1 CALLDATASIZE SUB DUP2 ADD SWAP1 PUSH2 0x13A SWAP2 SWAP1 PUSH2 0xCAC JUMP JUMPDEST PUSH2 0x30B JUMP JUMPDEST STOP JUMPDEST PUSH2 0x149 PUSH2 0x5FB JUMP JUMPDEST PUSH1 0x40 MLOAD PUSH2 0x156 SWAP2 SWAP1 PUSH2 0xBEB JUMP JUMPDEST PUSH1 0x40 MLOAD DUP1 SWAP2 SUB SWAP1 RETURN JUMPDEST PUSH2 0x167 PUSH2 0x601 JUMP JUMPDEST PUSH1 0x40 MLOAD PUSH2 0x174 SWAP2 SWAP1 PUSH2 0xCE8 JUMP JUMPDEST PUSH1 0x40 MLOAD DUP1 SWAP2 SUB SWAP1 RETURN JUMPDEST PUSH2 0x197 PUSH1 0x4 DUP1 CALLDATASIZE SUB DUP2 ADD SWAP1 PUSH2 0x192 SWAP2 SWAP1 PUSH2 0xBA5 JUMP JUMPDEST PUSH2 0x627 JUMP JUMPDEST PUSH1 0x40 MLOAD PUSH2 0x1A4 SWAP2 SWAP1 PUSH2 0xD1E JUMP JUMPDEST PUSH1 0x40 MLOAD DUP1 SWAP2 SUB SWAP1 RETURN JUMPDEST PUSH2 0x1B5 PUSH2 0x647 JUMP JUMPDEST STOP JUMPDEST PUSH2 0x1BF PUSH2 0x823 JUMP JUMPDEST PUSH1 0x40 MLOAD PUSH2 0x1CC SWAP2 SWAP1 PUSH2 0xBEB JUMP JUMPDEST PUSH1 0x40 MLOAD DUP1 SWAP2 SUB SWAP1 RETURN JUMPDEST PUSH2 0x1EF PUSH1 0x4 DUP1 CALLDATASIZE SUB DUP2 ADD SWAP1 PUSH2 0x1EA SWAP2 SWAP1 PUSH2 0xBA5 JUMP JUMPDEST PUSH2 0x829 JUMP JUMPDEST PUSH1 0x40 MLOAD PUSH2 0x1FC SWAP2 SWAP1 PUSH2 0xD1E JUMP JUMPDEST PUSH1 0x40 MLOAD DUP1 SWAP2 SUB SWAP1 RETURN JUMPDEST PUSH2 0x20D PUSH2 0x849 JUMP JUMPDEST STOP JUMPDEST PUSH2 0x229 PUSH1 0x4 DUP1 CALLDATASIZE SUB DUP2 ADD SWAP1 PUSH2 0x224 SWAP2 SWAP1 PUSH2 0xCAC JUMP JUMPDEST PUSH2 0xA51 JUMP JUMPDEST PUSH1 0x40 MLOAD PUSH2 0x236 SWAP2 SWAP1 PUSH2 0xCE8 JUMP JUMPDEST PUSH1 0x40 MLOAD DUP1 SWAP2 SUB SWAP1 RETURN JUMPDEST PUSH1 0x0 DUP1 SLOAD PUSH2 0x24C SWAP1 PUSH2 0xD68 JUMP JUMPDEST DUP1 PUSH1 0x1F ADD PUSH1 0x20 DUP1 SWAP2 DIV MUL PUSH1 0x20 ADD PUSH1 0x40 MLOAD SWAP1 DUP2 ADD PUSH1 0x40 MSTORE DUP1 SWAP3 SWAP2 SWAP1 DUP2 DUP2 MSTORE PUSH1 0x20 ADD DUP3 DUP1 SLOAD PUSH2 0x278 SWAP1 PUSH2 0xD68 JUMP JUMPDEST DUP1 ISZERO PUSH2 0x2C5 JUMPI DUP1 PUSH1 0x1F LT PUSH2 0x29A JUMPI PUSH2 0x100 DUP1 DUP4 SLOAD DIV MUL DUP4 MSTORE SWAP2 PUSH1 0x20 ADD SWAP2 PUSH2 0x2C5 JUMP JUMPDEST DUP3 ADD SWAP2 SWAP1 PUSH1 0x0 MSTORE PUSH1 0x20 PUSH1 0x0 KECCAK256 SWAP1 JUMPDEST DUP2 SLOAD DUP2 MSTORE SWAP1 PUSH1 0x1 ADD SWAP1 PUSH1 0x20 ADD DUP1 DUP4 GT PUSH2 0x2A8 JUMPI DUP3 SWAP1 SUB PUSH1 0x1F AND DUP3 ADD SWAP2 JUMPDEST POP POP POP POP POP DUP2 JUMP JUMPDEST PUSH1 0x5 PUSH1 0x20 MSTORE DUP1 PUSH1 0x0 MSTORE PUSH1 0x40 PUSH1 0x0 KECCAK256 PUSH1 0x0 SWAP2 POP SWAP1 POP SLOAD DUP2 JUMP JUMPDEST PUSH1 0x1 PUSH1 0x0 SWAP1 SLOAD SWAP1 PUSH2 0x100 EXP SWAP1 DIV PUSH20 0xFFFFFFFFFFFFFFFFFFFFFFFFFFFFFFFFFFFFFFFF AND DUP2 JUMP JUMPDEST PUSH1 0x0 DUP2 GT PUSH2 0x34E JUMPI PUSH1 0x40 MLOAD PUSH32 0x8C379A000000000000000000000000000000000000000000000000000000000 DUP2 MSTORE PUSH1 0x4 ADD PUSH2 0x345 SWAP1 PUSH2 0xDE5 JUMP JUMPDEST PUSH1 0x40 MLOAD DUP1 SWAP2 SUB SWAP1 REVERT JUMPDEST PUSH1 0x1 PUSH1 0x0 SWAP1 SLOAD SWAP1 PUSH2 0x100 EXP SWAP1 DIV PUSH20 0xFFFFFFFFFFFFFFFFFFFFFFFFFFFFFFFFFFFFFFFF AND PUSH20 0xFFFFFFFFFFFFFFFFFFFFFFFFFFFFFFFFFFFFFFFF AND PUSH4 0x23B872DD CALLER ADDRESS DUP5 PUSH1 0x40 MLOAD DUP5 PUSH4 0xFFFFFFFF AND PUSH1 0xE0 SHL DUP2 MSTORE PUSH1 0x4 ADD PUSH2 0x3AD SWAP4 SWAP3 SWAP2 SWAP1 PUSH2 0xE05 JUMP JUMPDEST PUSH1 0x20 PUSH1 0x40 MLOAD DUP1 DUP4 SUB DUP2 PUSH1 0x0 DUP8 GAS CALL ISZERO DUP1 ISZERO PUSH2 0x3CC JUMPI RETURNDATASIZE PUSH1 0x0 DUP1 RETURNDATACOPY RETURNDATASIZE PUSH1 0x0 REVERT JUMPDEST POP POP POP POP PUSH1 0x40 MLOAD RETURNDATASIZE PUSH1 0x1F NOT PUSH1 0x1F DUP3 ADD AND DUP3 ADD DUP1 PUSH1 0x40 MSTORE POP DUP2 ADD SWAP1 PUSH2 0x3F0 SWAP2 SWAP1 PUSH2 0xE68 JUMP JUMPDEST POP DUP1 PUSH1 0x4 SLOAD PUSH2 0x3FF SWAP2 SWAP1 PUSH2 0xEC4 JUMP JUMPDEST PUSH1 0x4 DUP2 SWAP1 SSTORE POP DUP1 PUSH1 0x5 PUSH1 0x0 CALLER PUSH20 0xFFFFFFFFFFFFFFFFFFFFFFFFFFFFFFFFFFFFFFFF AND PUSH20 0xFFFFFFFFFFFFFFFFFFFFFFFFFFFFFFFFFFFFFFFF AND DUP2 MSTORE PUSH1 0x20 ADD SWAP1 DUP2 MSTORE PUSH1 0x20 ADD PUSH1 0x0 KECCAK256 SLOAD PUSH2 0x450 SWAP2 SWAP1 PUSH2 0xEC4 JUMP JUMPDEST PUSH1 0x5 PUSH1 0x0 CALLER PUSH20 0xFFFFFFFFFFFFFFFFFFFFFFFFFFFFFFFFFFFFFFFF AND PUSH20 0xFFFFFFFFFFFFFFFFFFFFFFFFFFFFFFFFFFFFFFFF AND DUP2 MSTORE PUSH1 0x20 ADD SWAP1 DUP2 MSTORE PUSH1 0x20 ADD PUSH1 0x0 KECCAK256 DUP2 SWAP1 SSTORE POP PUSH1 0x6 PUSH1 0x0 CALLER PUSH20 0xFFFFFFFFFFFFFFFFFFFFFFFFFFFFFFFFFFFFFFFF AND PUSH20 0xFFFFFFFFFFFFFFFFFFFFFFFFFFFFFFFFFFFFFFFF AND DUP2 MSTORE PUSH1 0x20 ADD SWAP1 DUP2 MSTORE PUSH1 0x20 ADD PUSH1 0x0 KECCAK256 PUSH1 0x0 SWAP1 SLOAD SWAP1 PUSH2 0x100 EXP SWAP1 DIV PUSH1 0xFF AND PUSH2 0x548 JUMPI PUSH1 0x8 CALLER SWAP1 DUP1 PUSH1 0x1 DUP2 SLOAD ADD DUP1 DUP3 SSTORE DUP1 SWAP2 POP POP PUSH1 0x1 SWAP1 SUB SWAP1 PUSH1 0x0 MSTORE PUSH1 0x20 PUSH1 0x0 KECCAK256 ADD PUSH1 0x0 SWAP1 SWAP2 SWAP1 SWAP2 SWAP1 SWAP2 PUSH2 0x100 EXP DUP2 SLOAD DUP2 PUSH20 0xFFFFFFFFFFFFFFFFFFFFFFFFFFFFFFFFFFFFFFFF MUL NOT AND SWAP1 DUP4 PUSH20 0xFFFFFFFFFFFFFFFFFFFFFFFFFFFFFFFFFFFFFFFF AND MUL OR SWAP1 SSTORE POP JUMPDEST PUSH1 0x1 PUSH1 0x6 PUSH1 0x0 CALLER PUSH20 0xFFFFFFFFFFFFFFFFFFFFFFFFFFFFFFFFFFFFFFFF AND PUSH20 0xFFFFFFFFFFFFFFFFFFFFFFFFFFFFFFFFFFFFFFFF AND DUP2 MSTORE PUSH1 0x20 ADD SWAP1 DUP2 MSTORE PUSH1 0x20 ADD PUSH1 0x0 KECCAK256 PUSH1 0x0 PUSH2 0x100 EXP DUP2 SLOAD DUP2 PUSH1 0xFF MUL NOT AND SWAP1 DUP4 ISZERO ISZERO MUL OR SWAP1 SSTORE POP PUSH1 0x1 PUSH1 0x7 PUSH1 0x0 CALLER PUSH20 0xFFFFFFFFFFFFFFFFFFFFFFFFFFFFFFFFFFFFFFFF AND PUSH20 0xFFFFFFFFFFFFFFFFFFFFFFFFFFFFFFFFFFFFFFFF AND DUP2 MSTORE PUSH1 0x20 ADD SWAP1 DUP2 MSTORE PUSH1 0x20 ADD PUSH1 0x0 KECCAK256 PUSH1 0x0 PUSH2 0x100 EXP DUP2 SLOAD DUP2 PUSH1 0xFF MUL NOT AND SWAP1 DUP4 ISZERO ISZERO MUL OR SWAP1 SSTORE POP POP JUMP JUMPDEST PUSH1 0x4 SLOAD DUP2 JUMP JUMPDEST PUSH1 0x2 PUSH1 0x0 SWAP1 SLOAD SWAP1 PUSH2 0x100 EXP SWAP1 DIV PUSH20 0xFFFFFFFFFFFFFFFFFFFFFFFFFFFFFFFFFFFFFFFF AND DUP2 JUMP JUMPDEST PUSH1 0x7 PUSH1 0x20 MSTORE DUP1 PUSH1 0x0 MSTORE PUSH1 0x40 PUSH1 0x0 KECCAK256 PUSH1 0x0 SWAP2 POP SLOAD SWAP1 PUSH2 0x100 EXP SWAP1 DIV PUSH1 0xFF AND DUP2 JUMP JUMPDEST PUSH1 0x0 PUSH1 0x5 PUSH1 0x0 CALLER PUSH20 0xFFFFFFFFFFFFFFFFFFFFFFFFFFFFFFFFFFFFFFFF AND PUSH20 0xFFFFFFFFFFFFFFFFFFFFFFFFFFFFFFFFFFFFFFFF AND DUP2 MSTORE PUSH1 0x20 ADD SWAP1 DUP2 MSTORE PUSH1 0x20 ADD PUSH1 0x0 KECCAK256 SLOAD SWAP1 POP PUSH1 0x0 DUP2 GT PUSH2 0x6CE JUMPI PUSH1 0x40 MLOAD PUSH32 0x8C379A000000000000000000000000000000000000000000000000000000000 DUP2 MSTORE PUSH1 0x4 ADD PUSH2 0x6C5 SWAP1 PUSH2 0xF44 JUMP JUMPDEST PUSH1 0x40 MLOAD DUP1 SWAP2 SUB SWAP1 REVERT JUMPDEST PUSH1 0x1 PUSH1 0x0 SWAP1 SLOAD SWAP1 PUSH2 0x100 EXP SWAP1 DIV PUSH20 0xFFFFFFFFFFFFFFFFFFFFFFFFFFFFFFFFFFFFFFFF AND PUSH20 0xFFFFFFFFFFFFFFFFFFFFFFFFFFFFFFFFFFFFFFFF AND PUSH4 0xA9059CBB CALLER DUP4 PUSH1 0x40 MLOAD DUP4 PUSH4 0xFFFFFFFF AND PUSH1 0xE0 SHL DUP2 MSTORE PUSH1 0x4 ADD PUSH2 0x72B SWAP3 SWAP2 SWAP1 PUSH2 0xF64 JUMP JUMPDEST PUSH1 0x20 PUSH1 0x40 MLOAD DUP1 DUP4 SUB DUP2 PUSH1 0x0 DUP8 GAS CALL ISZERO DUP1 ISZERO PUSH2 0x74A JUMPI RETURNDATASIZE PUSH1 0x0 DUP1 RETURNDATACOPY RETURNDATASIZE PUSH1 0x0 REVERT JUMPDEST POP POP POP POP PUSH1 0x40 MLOAD RETURNDATASIZE PUSH1 0x1F NOT PUSH1 0x1F DUP3 ADD AND DUP3 ADD DUP1 PUSH1 0x40 MSTORE POP DUP2 ADD SWAP1 PUSH2 0x76E SWAP2 SWAP1 PUSH2 0xE68 JUMP JUMPDEST POP DUP1 PUSH1 0x4 SLOAD PUSH2 0x77D SWAP2 SWAP1 PUSH2 0xF8D JUMP JUMPDEST PUSH1 0x4 DUP2 SWAP1 SSTORE POP PUSH1 0x0 PUSH1 0x5 PUSH1 0x0 CALLER PUSH20 0xFFFFFFFFFFFFFFFFFFFFFFFFFFFFFFFFFFFFFFFF AND PUSH20 0xFFFFFFFFFFFFFFFFFFFFFFFFFFFFFFFFFFFFFFFF AND DUP2 MSTORE PUSH1 0x20 ADD SWAP1 DUP2 MSTORE PUSH1 0x20 ADD PUSH1 0x0 KECCAK256 DUP2 SWAP1 SSTORE POP PUSH1 0x0 PUSH1 0x7 PUSH1 0x0 CALLER PUSH20 0xFFFFFFFFFFFFFFFFFFFFFFFFFFFFFFFFFFFFFFFF AND PUSH20 0xFFFFFFFFFFFFFFFFFFFFFFFFFFFFFFFFFFFFFFFF AND DUP2 MSTORE PUSH1 0x20 ADD SWAP1 DUP2 MSTORE PUSH1 0x20 ADD PUSH1 0x0 KECCAK256 PUSH1 0x0 PUSH2 0x100 EXP DUP2 SLOAD DUP2 PUSH1 0xFF MUL NOT AND SWAP1 DUP4 ISZERO ISZERO MUL OR SWAP1 SSTORE POP POP JUMP JUMPDEST PUSH1 0x3 SLOAD DUP2 JUMP JUMPDEST PUSH1 0x6 PUSH1 0x20 MSTORE DUP1 PUSH1 0x0 MSTORE PUSH1 0x40 PUSH1 0x0 KECCAK256 PUSH1 0x0 SWAP2 POP SLOAD SWAP1 PUSH2 0x100 EXP SWAP1 DIV PUSH1 0xFF AND DUP2 JUMP JUMPDEST PUSH1 0x2 PUSH1 0x0 SWAP1 SLOAD SWAP1 PUSH2 0x100 EXP SWAP1 DIV PUSH20 0xFFFFFFFFFFFFFFFFFFFFFFFFFFFFFFFFFFFFFFFF AND PUSH20 0xFFFFFFFFFFFFFFFFFFFFFFFFFFFFFFFFFFFFFFFF AND CALLER PUSH20 0xFFFFFFFFFFFFFFFFFFFFFFFFFFFFFFFFFFFFFFFF AND EQ PUSH2 0x8D9 JUMPI PUSH1 0x40 MLOAD PUSH32 0x8C379A000000000000000000000000000000000000000000000000000000000 DUP2 MSTORE PUSH1 0x4 ADD PUSH2 0x8D0 SWAP1 PUSH2 0x1033 JUMP JUMPDEST PUSH1 0x40 MLOAD DUP1 SWAP2 SUB SWAP1 REVERT JUMPDEST PUSH1 0x0 JUMPDEST PUSH1 0x8 DUP1 SLOAD SWAP1 POP DUP2 LT ISZERO PUSH2 0xA4E JUMPI PUSH1 0x0 PUSH1 0x8 DUP3 DUP2 SLOAD DUP2 LT PUSH2 0x8FF JUMPI PUSH2 0x8FE PUSH2 0x1053 JUMP JUMPDEST JUMPDEST SWAP1 PUSH1 0x0 MSTORE PUSH1 0x20 PUSH1 0x0 KECCAK256 ADD PUSH1 0x0 SWAP1 SLOAD SWAP1 PUSH2 0x100 EXP SWAP1 DIV PUSH20 0xFFFFFFFFFFFFFFFFFFFFFFFFFFFFFFFFFFFFFFFF AND SWAP1 POP PUSH1 0x0 PUSH1 0x3 SLOAD PUSH1 0x5 PUSH1 0x0 DUP5 PUSH20 0xFFFFFFFFFFFFFFFFFFFFFFFFFFFFFFFFFFFFFFFF AND PUSH20 0xFFFFFFFFFFFFFFFFFFFFFFFFFFFFFFFFFFFFFFFF AND DUP2 MSTORE PUSH1 0x20 ADD SWAP1 DUP2 MSTORE PUSH1 0x20 ADD PUSH1 0x0 KECCAK256 SLOAD PUSH2 0x97B SWAP2 SWAP1 PUSH2 0x1082 JUMP JUMPDEST SWAP1 POP PUSH3 0x186A0 DUP2 PUSH2 0x98C SWAP2 SWAP1 PUSH2 0x10F3 JUMP JUMPDEST SWAP1 POP PUSH1 0x0 DUP2 GT ISZERO PUSH2 0xA39 JUMPI PUSH1 0x1 PUSH1 0x0 SWAP1 SLOAD SWAP1 PUSH2 0x100 EXP SWAP1 DIV PUSH20 0xFFFFFFFFFFFFFFFFFFFFFFFFFFFFFFFFFFFFFFFF AND PUSH20 0xFFFFFFFFFFFFFFFFFFFFFFFFFFFFFFFFFFFFFFFF AND PUSH4 0xA9059CBB DUP4 DUP4 PUSH1 0x40 MLOAD DUP4 PUSH4 0xFFFFFFFF AND PUSH1 0xE0 SHL DUP2 MSTORE PUSH1 0x4 ADD PUSH2 0x9F4 SWAP3 SWAP2 SWAP1 PUSH2 0xF64 JUMP JUMPDEST PUSH1 0x20 PUSH1 0x40 MLOAD DUP1 DUP4 SUB DUP2 PUSH1 0x0 DUP8 GAS CALL ISZERO DUP1 ISZERO PUSH2 0xA13 JUMPI RETURNDATASIZE PUSH1 0x0 DUP1 RETURNDATACOPY RETURNDATASIZE PUSH1 0x0 REVERT JUMPDEST POP POP POP POP PUSH1 0x40 MLOAD RETURNDATASIZE PUSH1 0x1F NOT PUSH1 0x1F DUP3 ADD AND DUP3 ADD DUP1 PUSH1 0x40 MSTORE POP DUP2 ADD SWAP1 PUSH2 0xA37 SWAP2 SWAP1 PUSH2 0xE68 JUMP JUMPDEST POP JUMPDEST POP POP DUP1 DUP1 PUSH2 0xA46 SWAP1 PUSH2 0x1124 JUMP JUMPDEST SWAP2 POP POP PUSH2 0x8DC JUMP JUMPDEST POP JUMP JUMPDEST PUSH1 0x8 DUP2 DUP2 SLOAD DUP2 LT PUSH2 0xA61 JUMPI PUSH1 0x0 DUP1 REVERT JUMPDEST SWAP1 PUSH1 0x0 MSTORE PUSH1 0x20 PUSH1 0x0 KECCAK256 ADD PUSH1 0x0 SWAP2 POP SLOAD SWAP1 PUSH2 0x100 EXP SWAP1 DIV PUSH20 0xFFFFFFFFFFFFFFFFFFFFFFFFFFFFFFFFFFFFFFFF AND DUP2 JUMP JUMPDEST PUSH1 0x0 DUP2 MLOAD SWAP1 POP SWAP2 SWAP1 POP JUMP JUMPDEST PUSH1 0x0 DUP3 DUP3 MSTORE PUSH1 0x20 DUP3 ADD SWAP1 POP SWAP3 SWAP2 POP POP JUMP JUMPDEST PUSH1 0x0 JUMPDEST DUP4 DUP2 LT ISZERO PUSH2 0xACA JUMPI DUP1 DUP3 ADD MLOAD DUP2 DUP5 ADD MSTORE PUSH1 0x20 DUP2 ADD SWAP1 POP PUSH2 0xAAF JUMP JUMPDEST PUSH1 0x0 DUP5 DUP5 ADD MSTORE POP POP POP POP JUMP JUMPDEST PUSH1 0x0 PUSH1 0x1F NOT PUSH1 0x1F DUP4 ADD AND SWAP1 POP SWAP2 SWAP1 POP JUMP JUMPDEST PUSH1 0x0 PUSH2 0xAF2 DUP3 PUSH2 0xA90 JUMP JUMPDEST PUSH2 0xAFC DUP2 DUP6 PUSH2 0xA9B JUMP JUMPDEST SWAP4 POP PUSH2 0xB0C DUP2 DUP6 PUSH1 0x20 DUP7 ADD PUSH2 0xAAC JUMP JUMPDEST PUSH2 0xB15 DUP2 PUSH2 0xAD6 JUMP JUMPDEST DUP5 ADD SWAP2 POP POP SWAP3 SWAP2 POP POP JUMP JUMPDEST PUSH1 0x0 PUSH1 0x20 DUP3 ADD SWAP1 POP DUP2 DUP2 SUB PUSH1 0x0 DUP4 ADD MSTORE PUSH2 0xB3A DUP2 DUP5 PUSH2 0xAE7 JUMP JUMPDEST SWAP1 POP SWAP3 SWAP2 POP POP JUMP JUMPDEST PUSH1 0x0 DUP1 REVERT JUMPDEST PUSH1 0x0 PUSH20 0xFFFFFFFFFFFFFFFFFFFFFFFFFFFFFFFFFFFFFFFF DUP3 AND SWAP1 POP SWAP2 SWAP1 POP JUMP JUMPDEST PUSH1 0x0 PUSH2 0xB72 DUP3 PUSH2 0xB47 JUMP JUMPDEST SWAP1 POP SWAP2 SWAP1 POP JUMP JUMPDEST PUSH2 0xB82 DUP2 PUSH2 0xB67 JUMP JUMPDEST DUP2 EQ PUSH2 0xB8D JUMPI PUSH1 0x0 DUP1 REVERT JUMPDEST POP JUMP JUMPDEST PUSH1 0x0 DUP2 CALLDATALOAD SWAP1 POP PUSH2 0xB9F DUP2 PUSH2 0xB79 JUMP JUMPDEST SWAP3 SWAP2 POP POP JUMP JUMPDEST PUSH1 0x0 PUSH1 0x20 DUP3 DUP5 SUB SLT ISZERO PUSH2 0xBBB JUMPI PUSH2 0xBBA PUSH2 0xB42 JUMP JUMPDEST JUMPDEST PUSH1 0x0 PUSH2 0xBC9 DUP5 DUP3 DUP6 ADD PUSH2 0xB90 JUMP JUMPDEST SWAP2 POP POP SWAP3 SWAP2 POP POP JUMP JUMPDEST PUSH1 0x0 DUP2 SWAP1 POP SWAP2 SWAP1 POP JUMP JUMPDEST PUSH2 0xBE5 DUP2 PUSH2 0xBD2 JUMP JUMPDEST DUP3 MSTORE POP POP JUMP JUMPDEST PUSH1 0x0 PUSH1 0x20 DUP3 ADD SWAP1 POP PUSH2 0xC00 PUSH1 0x0 DUP4 ADD DUP5 PUSH2 0xBDC JUMP JUMPDEST SWAP3 SWAP2 POP POP JUMP JUMPDEST PUSH1 0x0 DUP2 SWAP1 POP SWAP2 SWAP1 POP JUMP JUMPDEST PUSH1 0x0 PUSH2 0xC2B PUSH2 0xC26 PUSH2 0xC21 DUP5 PUSH2 0xB47 JUMP JUMPDEST PUSH2 0xC06 JUMP JUMPDEST PUSH2 0xB47 JUMP JUMPDEST SWAP1 POP SWAP2 SWAP1 POP JUMP JUMPDEST PUSH1 0x0 PUSH2 0xC3D DUP3 PUSH2 0xC10 JUMP JUMPDEST SWAP1 POP SWAP2 SWAP1 POP JUMP JUMPDEST PUSH1 0x0 PUSH2 0xC4F DUP3 PUSH2 0xC32 JUMP JUMPDEST SWAP1 POP SWAP2 SWAP1 POP JUMP JUMPDEST PUSH2 0xC5F DUP2 PUSH2 0xC44 JUMP JUMPDEST DUP3 MSTORE POP POP JUMP JUMPDEST PUSH1 0x0 PUSH1 0x20 DUP3 ADD SWAP1 POP PUSH2 0xC7A PUSH1 0x0 DUP4 ADD DUP5 PUSH2 0xC56 JUMP JUMPDEST SWAP3 SWAP2 POP POP JUMP JUMPDEST PUSH2 0xC89 DUP2 PUSH2 0xBD2 JUMP JUMPDEST DUP2 EQ PUSH2 0xC94 JUMPI PUSH1 0x0 DUP1 REVERT JUMPDEST POP JUMP JUMPDEST PUSH1 0x0 DUP2 CALLDATALOAD SWAP1 POP PUSH2 0xCA6 DUP2 PUSH2 0xC80 JUMP JUMPDEST SWAP3 SWAP2 POP POP JUMP JUMPDEST PUSH1 0x0 PUSH1 0x20 DUP3 DUP5 SUB SLT ISZERO PUSH2 0xCC2 JUMPI PUSH2 0xCC1 PUSH2 0xB42 JUMP JUMPDEST JUMPDEST PUSH1 0x0 PUSH2 0xCD0 DUP5 DUP3 DUP6 ADD PUSH2 0xC97 JUMP JUMPDEST SWAP2 POP POP SWAP3 SWAP2 POP POP JUMP JUMPDEST PUSH2 0xCE2 DUP2 PUSH2 0xB67 JUMP JUMPDEST DUP3 MSTORE POP POP JUMP JUMPDEST PUSH1 0x0 PUSH1 0x20 DUP3 ADD SWAP1 POP PUSH2 0xCFD PUSH1 0x0 DUP4 ADD DUP5 PUSH2 0xCD9 JUMP JUMPDEST SWAP3 SWAP2 POP POP JUMP JUMPDEST PUSH1 0x0 DUP2 ISZERO ISZERO SWAP1 POP SWAP2 SWAP1 POP JUMP JUMPDEST PUSH2 0xD18 DUP2 PUSH2 0xD03 JUMP JUMPDEST DUP3 MSTORE POP POP JUMP JUMPDEST PUSH1 0x0 PUSH1 0x20 DUP3 ADD SWAP1 POP PUSH2 0xD33 PUSH1 0x0 DUP4 ADD DUP5 PUSH2 0xD0F JUMP JUMPDEST SWAP3 SWAP2 POP POP JUMP JUMPDEST PUSH32 0x4E487B7100000000000000000000000000000000000000000000000000000000 PUSH1 0x0 MSTORE PUSH1 0x22 PUSH1 0x4 MSTORE PUSH1 0x24 PUSH1 0x0 REVERT JUMPDEST PUSH1 0x0 PUSH1 0x2 DUP3 DIV SWAP1 POP PUSH1 0x1 DUP3 AND DUP1 PUSH2 0xD80 JUMPI PUSH1 0x7F DUP3 AND SWAP2 POP JUMPDEST PUSH1 0x20 DUP3 LT DUP2 SUB PUSH2 0xD93 JUMPI PUSH2 0xD92 PUSH2 0xD39 JUMP JUMPDEST JUMPDEST POP SWAP2 SWAP1 POP JUMP JUMPDEST PUSH32 0x616D6F756E742063616E6E6F7420626520300000000000000000000000000000 PUSH1 0x0 DUP3 ADD MSTORE POP JUMP JUMPDEST PUSH1 0x0 PUSH2 0xDCF PUSH1 0x12 DUP4 PUSH2 0xA9B JUMP JUMPDEST SWAP2 POP PUSH2 0xDDA DUP3 PUSH2 0xD99 JUMP JUMPDEST PUSH1 0x20 DUP3 ADD SWAP1 POP SWAP2 SWAP1 POP JUMP JUMPDEST PUSH1 0x0 PUSH1 0x20 DUP3 ADD SWAP1 POP DUP2 DUP2 SUB PUSH1 0x0 DUP4 ADD MSTORE PUSH2 0xDFE DUP2 PUSH2 0xDC2 JUMP JUMPDEST SWAP1 POP SWAP2 SWAP1 POP JUMP JUMPDEST PUSH1 0x0 PUSH1 0x60 DUP3 ADD SWAP1 POP PUSH2 0xE1A PUSH1 0x0 DUP4 ADD DUP7 PUSH2 0xCD9 JUMP JUMPDEST PUSH2 0xE27 PUSH1 0x20 DUP4 ADD DUP6 PUSH2 0xCD9 JUMP JUMPDEST PUSH2 0xE34 PUSH1 0x40 DUP4 ADD DUP5 PUSH2 0xBDC JUMP JUMPDEST SWAP5 SWAP4 POP POP POP POP JUMP JUMPDEST PUSH2 0xE45 DUP2 PUSH2 0xD03 JUMP JUMPDEST DUP2 EQ PUSH2 0xE50 JUMPI PUSH1 0x0 DUP1 REVERT JUMPDEST POP JUMP JUMPDEST PUSH1 0x0 DUP2 MLOAD SWAP1 POP PUSH2 0xE62 DUP2 PUSH2 0xE3C JUMP JUMPDEST SWAP3 SWAP2 POP POP JUMP JUMPDEST PUSH1 0x0 PUSH1 0x20 DUP3 DUP5 SUB SLT ISZERO PUSH2 0xE7E JUMPI PUSH2 0xE7D PUSH2 0xB42 JUMP JUMPDEST JUMPDEST PUSH1 0x0 PUSH2 0xE8C DUP5 DUP3 DUP6 ADD PUSH2 0xE53 JUMP JUMPDEST SWAP2 POP POP SWAP3 SWAP2 POP POP JUMP JUMPDEST PUSH32 0x4E487B7100000000000000000000000000000000000000000000000000000000 PUSH1 0x0 MSTORE PUSH1 0x11 PUSH1 0x4 MSTORE PUSH1 0x24 PUSH1 0x0 REVERT JUMPDEST PUSH1 0x0 PUSH2 0xECF DUP3 PUSH2 0xBD2 JUMP JUMPDEST SWAP2 POP PUSH2 0xEDA DUP4 PUSH2 0xBD2 JUMP JUMPDEST SWAP3 POP DUP3 DUP3 ADD SWAP1 POP DUP1 DUP3 GT ISZERO PUSH2 0xEF2 JUMPI PUSH2 0xEF1 PUSH2 0xE95 JUMP JUMPDEST JUMPDEST SWAP3 SWAP2 POP POP JUMP JUMPDEST PUSH32 0x616D6F756E742068617320746F206265206D6F7265207468616E203000000000 PUSH1 0x0 DUP3 ADD MSTORE POP JUMP JUMPDEST PUSH1 0x0 PUSH2 0xF2E PUSH1 0x1C DUP4 PUSH2 0xA9B JUMP JUMPDEST SWAP2 POP PUSH2 0xF39 DUP3 PUSH2 0xEF8 JUMP JUMPDEST PUSH1 0x20 DUP3 ADD SWAP1 POP SWAP2 SWAP1 POP JUMP JUMPDEST PUSH1 0x0 PUSH1 0x20 DUP3 ADD SWAP1 POP DUP2 DUP2 SUB PUSH1 0x0 DUP4 ADD MSTORE PUSH2 0xF5D DUP2 PUSH2 0xF21 JUMP JUMPDEST SWAP1 POP SWAP2 SWAP1 POP JUMP JUMPDEST PUSH1 0x0 PUSH1 0x40 DUP3 ADD SWAP1 POP PUSH2 0xF79 PUSH1 0x0 DUP4 ADD DUP6 PUSH2 0xCD9 JUMP JUMPDEST PUSH2 0xF86 PUSH1 0x20 DUP4 ADD DUP5 PUSH2 0xBDC JUMP JUMPDEST SWAP4 SWAP3 POP POP POP JUMP JUMPDEST PUSH1 0x0 PUSH2 0xF98 DUP3 PUSH2 0xBD2 JUMP JUMPDEST SWAP2 POP PUSH2 0xFA3 DUP4 PUSH2 0xBD2 JUMP JUMPDEST SWAP3 POP DUP3 DUP3 SUB SWAP1 POP DUP2 DUP2 GT ISZERO PUSH2 0xFBB JUMPI PUSH2 0xFBA PUSH2 0xE95 JUMP JUMPDEST JUMPDEST SWAP3 SWAP2 POP POP JUMP JUMPDEST PUSH32 0x4F6E6C7920636F6E74726163742063726561746F722063616E20726564697374 PUSH1 0x0 DUP3 ADD MSTORE PUSH32 0x7269627574650000000000000000000000000000000000000000000000000000 PUSH1 0x20 DUP3 ADD MSTORE POP JUMP JUMPDEST PUSH1 0x0 PUSH2 0x101D PUSH1 0x26 DUP4 PUSH2 0xA9B JUMP JUMPDEST SWAP2 POP PUSH2 0x1028 DUP3 PUSH2 0xFC1 JUMP JUMPDEST PUSH1 0x40 DUP3 ADD SWAP1 POP SWAP2 SWAP1 POP JUMP JUMPDEST PUSH1 0x0 PUSH1 0x20 DUP3 ADD SWAP1 POP DUP2 DUP2 SUB PUSH1 0x0 DUP4 ADD MSTORE PUSH2 0x104C DUP2 PUSH2 0x1010 JUMP JUMPDEST SWAP1 POP SWAP2 SWAP1 POP JUMP JUMPDEST PUSH32 0x4E487B7100000000000000000000000000000000000000000000000000000000 PUSH1 0x0 MSTORE PUSH1 0x32 PUSH1 0x4 MSTORE PUSH1 0x24 PUSH1 0x0 REVERT JUMPDEST PUSH1 0x0 PUSH2 0x108D DUP3 PUSH2 0xBD2 JUMP JUMPDEST SWAP2 POP PUSH2 0x1098 DUP4 PUSH2 0xBD2 JUMP JUMPDEST SWAP3 POP DUP3 DUP3 MUL PUSH2 0x10A6 DUP2 PUSH2 0xBD2 JUMP JUMPDEST SWAP2 POP DUP3 DUP3 DIV DUP5 EQ DUP4 ISZERO OR PUSH2 0x10BD JUMPI PUSH2 0x10BC PUSH2 0xE95 JUMP JUMPDEST JUMPDEST POP SWAP3 SWAP2 POP POP JUMP JUMPDEST PUSH32 0x4E487B7100000000000000000000000000000000000000000000000000000000 PUSH1 0x0 MSTORE PUSH1 0x12 PUSH1 0x4 MSTORE PUSH1 0x24 PUSH1 0x0 REVERT JUMPDEST PUSH1 0x0 PUSH2 0x10FE DUP3 PUSH2 0xBD2 JUMP JUMPDEST SWAP2 POP PUSH2 0x1109 DUP4 PUSH2 0xBD2 JUMP JUMPDEST SWAP3 POP DUP3 PUSH2 0x1119 JUMPI PUSH2 0x1118 PUSH2 0x10C4 JUMP JUMPDEST JUMPDEST DUP3 DUP3 DIV SWAP1 POP SWAP3 SWAP2 POP POP JUMP JUMPDEST PUSH1 0x0 PUSH2 0x112F DUP3 PUSH2 0xBD2 JUMP JUMPDEST SWAP2 POP PUSH32 0xFFFFFFFFFFFFFFFFFFFFFFFFFFFFFFFFFFFFFFFFFFFFFFFFFFFFFFFFFFFFFFFF DUP3 SUB PUSH2 0x1161 JUMPI PUSH2 0x1160 PUSH2 0xE95 JUMP JUMPDEST JUMPDEST PUSH1 0x1 DUP3 ADD SWAP1 POP SWAP2 SWAP1 POP JUMP INVALID LOG2 PUSH5 0x6970667358 0x22 SLT KECCAK256 LOG1 0xC5 MSTORE 0xD0 REVERT DUP13 DUP4 JUMP 0xC 0xC5 0x5F LOG0 PUSH17 0xB49C37954B8DFD10B30CB159C667068128 SWAP5 0x4C PUSH5 0x736F6C6343 STOP ADDMOD GT STOP CALLER "},"methodIdentifiers":{"defaultAPY()":"b4e892af","hasStaked(address)":"c93c8f34","isStakingAtm(address)":"9bd62932","name()":"06fdde03","owner()":"8da5cb5b","redistributeRewards()":"cc8da8b8","stakeTokens(uint256)":"7547c7a3","stakers(uint256)":"fd5e6dd1","stakingBalance(address)":"45bc78ab","testToken()":"6895179d","totalStaked()":"817b1cd2","unstakeTokens()":"a5ce413b"}}}}}