{
  "_format": "hh-sol-artifact-1",
  "contractName": "Staking",
  "sourceName": "contracts/Staking.sol",
  "abi": [
    {
      "inputs": [
        {
          "internalType": "contract TestToken",
          "name": "_testToken",
          "type": "address"
        }
      ],
      "stateMutability": "payable",
      "type": "constructor"
    },
    {
      "inputs": [],
      "name": "defaultAPY",
      "outputs": [
        {
          "internalType": "uint256",
          "name": "",
          "type": "uint256"
        }
      ],
      "stateMutability": "view",
      "type": "function"
    },
    {
      "inputs": [
        {
          "internalType": "address",
          "name": "",
          "type": "address"
        }
      ],
      "name": "hasStaked",
      "outputs": [
        {
          "internalType": "bool",
          "name": "",
          "type": "bool"
        }
      ],
      "stateMutability": "view",
      "type": "function"
    },
    {
      "inputs": [
        {
          "internalType": "address",
          "name": "",
          "type": "address"
        }
      ],
      "name": "isStakingAtm",
      "outputs": [
        {
          "internalType": "bool",
          "name": "",
          "type": "bool"
        }
      ],
      "stateMutability": "view",
      "type": "function"
    },
    {
      "inputs": [],
      "name": "name",
      "outputs": [
        {
          "internalType": "string",
          "name": "",
          "type": "string"
        }
      ],
      "stateMutability": "view",
      "type": "function"
    },
    {
      "inputs": [],
      "name": "owner",
      "outputs": [
        {
          "internalType": "address",
          "name": "",
          "type": "address"
        }
      ],
      "stateMutability": "view",
      "type": "function"
    },
    {
      "inputs": [],
      "name": "redistributeRewards",
      "outputs": [],
      "stateMutability": "nonpayable",
      "type": "function"
    },
    {
      "inputs": [
        {
          "internalType": "uint256",
          "name": "_amount",
          "type": "uint256"
        }
      ],
      "name": "stakeTokens",
      "outputs": [],
      "stateMutability": "nonpayable",
      "type": "function"
    },
    {
      "inputs": [
        {
          "internalType": "uint256",
          "name": "",
          "type": "uint256"
        }
      ],
      "name": "stakers",
      "outputs": [
        {
          "internalType": "address",
          "name": "",
          "type": "address"
        }
      ],
      "stateMutability": "view",
      "type": "function"
    },
    {
      "inputs": [
        {
          "internalType": "address",
          "name": "",
          "type": "address"
        }
      ],
      "name": "stakingBalance",
      "outputs": [
        {
          "internalType": "uint256",
          "name": "",
          "type": "uint256"
        }
      ],
      "stateMutability": "view",
      "type": "function"
    },
    {
      "inputs": [],
      "name": "testToken",
      "outputs": [
        {
          "internalType": "contract TestToken",
          "name": "",
          "type": "address"
        }
      ],
      "stateMutability": "view",
      "type": "function"
    },
    {
      "inputs": [],
      "name": "totalStaked",
      "outputs": [
        {
          "internalType": "uint256",
          "name": "",
          "type": "uint256"
        }
      ],
      "stateMutability": "view",
      "type": "function"
    },
    {
      "inputs": [],
      "name": "unstakeTokens",
      "outputs": [],
      "stateMutability": "nonpayable",
      "type": "function"
    }
  ],
  "bytecode": "0x60806040526040518060400160405280601a81526020017f5969656c64204661726d696e67202f20546f6b656e2064417070000000000000815250600090816200004a919062000378565b506064600355604051620016bf380380620016bf8339818101604052810190620000759190620004dd565b80600160006101000a81548173ffffffffffffffffffffffffffffffffffffffff021916908373ffffffffffffffffffffffffffffffffffffffff16021790555033600260006101000a81548173ffffffffffffffffffffffffffffffffffffffff021916908373ffffffffffffffffffffffffffffffffffffffff160217905550506200050f565b600081519050919050565b7f4e487b7100000000000000000000000000000000000000000000000000000000600052604160045260246000fd5b7f4e487b7100000000000000000000000000000000000000000000000000000000600052602260045260246000fd5b600060028204905060018216806200018057607f821691505b60208210810362000196576200019562000138565b5b50919050565b60008190508160005260206000209050919050565b60006020601f8301049050919050565b600082821b905092915050565b600060088302620002007fffffffffffffffffffffffffffffffffffffffffffffffffffffffffffffffff82620001c1565b6200020c8683620001c1565b95508019841693508086168417925050509392505050565b6000819050919050565b6000819050919050565b600062000259620002536200024d8462000224565b6200022e565b62000224565b9050919050565b6000819050919050565b620002758362000238565b6200028d620002848262000260565b848454620001ce565b825550505050565b600090565b620002a462000295565b620002b18184846200026a565b505050565b5b81811015620002d957620002cd6000826200029a565b600181019050620002b7565b5050565b601f8211156200032857620002f2816200019c565b620002fd84620001b1565b810160208510156200030d578190505b620003256200031c85620001b1565b830182620002b6565b50505b505050565b600082821c905092915050565b60006200034d600019846008026200032d565b1980831691505092915050565b60006200036883836200033a565b9150826002028217905092915050565b6200038382620000fe565b67ffffffffffffffff8111156200039f576200039e62000109565b5b620003ab825462000167565b620003b8828285620002dd565b600060209050601f831160018114620003f05760008415620003db578287015190505b620003e785826200035a565b86555062000457565b601f19841662000400866200019c565b60005b828110156200042a5784890151825560018201915060208501945060208101905062000403565b868310156200044a578489015162000446601f8916826200033a565b8355505b6001600288020188555050505b505050505050565b600080fd5b600073ffffffffffffffffffffffffffffffffffffffff82169050919050565b6000620004918262000464565b9050919050565b6000620004a58262000484565b9050919050565b620004b78162000498565b8114620004c357600080fd5b50565b600081519050620004d781620004ac565b92915050565b600060208284031215620004f657620004f56200045f565b5b60006200050684828501620004c6565b91505092915050565b6111a0806200051f6000396000f3fe608060405234801561001057600080fd5b50600436106100b45760003560e01c80639bd62932116100715780639bd629321461017d578063a5ce413b146101ad578063b4e892af146101b7578063c93c8f34146101d5578063cc8da8b814610205578063fd5e6dd11461020f576100b4565b806306fdde03146100b957806345bc78ab146100d75780636895179d146101075780637547c7a314610125578063817b1cd2146101415780638da5cb5b1461015f575b600080fd5b6100c161023f565b6040516100ce9190610b1e565b60405180910390f35b6100f160048036038101906100ec9190610ba3565b6102cd565b6040516100fe9190610be9565b60405180910390f35b61010f6102e5565b60405161011c9190610c63565b60405180910390f35b61013f600480360381019061013a9190610caa565b61030b565b005b6101496105fb565b6040516101569190610be9565b60405180910390f35b610167610601565b6040516101749190610ce6565b60405180910390f35b61019760048036038101906101929190610ba3565b610627565b6040516101a49190610d1c565b60405180910390f35b6101b5610647565b005b6101bf610823565b6040516101cc9190610be9565b60405180910390f35b6101ef60048036038101906101ea9190610ba3565b610829565b6040516101fc9190610d1c565b60405180910390f35b61020d610849565b005b61022960048036038101906102249190610caa565b610a4f565b6040516102369190610ce6565b60405180910390f35b6000805461024c90610d66565b80601f016020809104026020016040519081016040528092919081815260200182805461027890610d66565b80156102c55780601f1061029a576101008083540402835291602001916102c5565b820191906000526020600020905b8154815290600101906020018083116102a857829003601f168201915b505050505081565b60056020528060005260406000206000915090505481565b600160009054906101000a900473ffffffffffffffffffffffffffffffffffffffff1681565b6000811161034e576040517f08c379a000000000000000000000000000000000000000000000000000000000815260040161034590610de3565b60405180910390fd5b600160009054906101000a900473ffffffffffffffffffffffffffffffffffffffff1673ffffffffffffffffffffffffffffffffffffffff166323b872dd3330846040518463ffffffff1660e01b81526004016103ad93929190610e03565b6020604051808303816000875af11580156103cc573d6000803e3d6000fd5b505050506040513d601f19601f820116820180604052508101906103f09190610e66565b50806004546103ff9190610ec2565b60048190555080600560003373ffffffffffffffffffffffffffffffffffffffff1673ffffffffffffffffffffffffffffffffffffffff168152602001908152602001600020546104509190610ec2565b600560003373ffffffffffffffffffffffffffffffffffffffff1673ffffffffffffffffffffffffffffffffffffffff16815260200190815260200160002081905550600660003373ffffffffffffffffffffffffffffffffffffffff1673ffffffffffffffffffffffffffffffffffffffff16815260200190815260200160002060009054906101000a900460ff16610548576008339080600181540180825580915050600190039060005260206000200160009091909190916101000a81548173ffffffffffffffffffffffffffffffffffffffff021916908373ffffffffffffffffffffffffffffffffffffffff1602179055505b6001600660003373ffffffffffffffffffffffffffffffffffffffff1673ffffffffffffffffffffffffffffffffffffffff16815260200190815260200160002060006101000a81548160ff0219169083151502179055506001600760003373ffffffffffffffffffffffffffffffffffffffff1673ffffffffffffffffffffffffffffffffffffffff16815260200190815260200160002060006101000a81548160ff02191690831515021790555050565b60045481565b600260009054906101000a900473ffffffffffffffffffffffffffffffffffffffff1681565b60076020528060005260406000206000915054906101000a900460ff1681565b6000600560003373ffffffffffffffffffffffffffffffffffffffff1673ffffffffffffffffffffffffffffffffffffffff168152602001908152602001600020549050600081116106ce576040517f08c379a00000000000000000000000000000000000000000000000000000000081526004016106c590610f42565b60405180910390fd5b600160009054906101000a900473ffffffffffffffffffffffffffffffffffffffff1673ffffffffffffffffffffffffffffffffffffffff1663a9059cbb33836040518363ffffffff1660e01b815260040161072b929190610f62565b6020604051808303816000875af115801561074a573d6000803e3d6000fd5b505050506040513d601f19601f8201168201806040525081019061076e9190610e66565b508060045461077d9190610f8b565b6004819055506000600560003373ffffffffffffffffffffffffffffffffffffffff1673ffffffffffffffffffffffffffffffffffffffff168152602001908152602001600020819055506000600760003373ffffffffffffffffffffffffffffffffffffffff1673ffffffffffffffffffffffffffffffffffffffff16815260200190815260200160002060006101000a81548160ff02191690831515021790555050565b60035481565b60066020528060005260406000206000915054906101000a900460ff1681565b600260009054906101000a900473ffffffffffffffffffffffffffffffffffffffff1673ffffffffffffffffffffffffffffffffffffffff163373ffffffffffffffffffffffffffffffffffffffff16146108d9576040517f08c379a00000000000000000000000000000000000000000000000000000000081526004016108d090611031565b60405180910390fd5b60005b600880549050811015610a4c576000600882815481106108ff576108fe611051565b5b9060005260206000200160009054906101000a900473ffffffffffffffffffffffffffffffffffffffff1690506000600354600560008473ffffffffffffffffffffffffffffffffffffffff1673ffffffffffffffffffffffffffffffffffffffff1681526020019081526020016000205461097b9190611080565b905060648161098a91906110f1565b90506000811115610a3757600160009054906101000a900473ffffffffffffffffffffffffffffffffffffffff1673ffffffffffffffffffffffffffffffffffffffff1663a9059cbb83836040518363ffffffff1660e01b81526004016109f2929190610f62565b6020604051808303816000875af1158015610a11573d6000803e3d6000fd5b505050506040513d601f19601f82011682018060405250810190610a359190610e66565b505b50508080610a4490611122565b9150506108dc565b50565b60088181548110610a5f57600080fd5b906000526020600020016000915054906101000a900473ffffffffffffffffffffffffffffffffffffffff1681565b600081519050919050565b600082825260208201905092915050565b60005b83811015610ac8578082015181840152602081019050610aad565b60008484015250505050565b6000601f19601f8301169050919050565b6000610af082610a8e565b610afa8185610a99565b9350610b0a818560208601610aaa565b610b1381610ad4565b840191505092915050565b60006020820190508181036000830152610b388184610ae5565b905092915050565b600080fd5b600073ffffffffffffffffffffffffffffffffffffffff82169050919050565b6000610b7082610b45565b9050919050565b610b8081610b65565b8114610b8b57600080fd5b50565b600081359050610b9d81610b77565b92915050565b600060208284031215610bb957610bb8610b40565b5b6000610bc784828501610b8e565b91505092915050565b6000819050919050565b610be381610bd0565b82525050565b6000602082019050610bfe6000830184610bda565b92915050565b6000819050919050565b6000610c29610c24610c1f84610b45565b610c04565b610b45565b9050919050565b6000610c3b82610c0e565b9050919050565b6000610c4d82610c30565b9050919050565b610c5d81610c42565b82525050565b6000602082019050610c786000830184610c54565b92915050565b610c8781610bd0565b8114610c9257600080fd5b50565b600081359050610ca481610c7e565b92915050565b600060208284031215610cc057610cbf610b40565b5b6000610cce84828501610c95565b91505092915050565b610ce081610b65565b82525050565b6000602082019050610cfb6000830184610cd7565b92915050565b60008115159050919050565b610d1681610d01565b82525050565b6000602082019050610d316000830184610d0d565b92915050565b7f4e487b7100000000000000000000000000000000000000000000000000000000600052602260045260246000fd5b60006002820490506001821680610d7e57607f821691505b602082108103610d9157610d90610d37565b5b50919050565b7f616d6f756e742063616e6e6f7420626520300000000000000000000000000000600082015250565b6000610dcd601283610a99565b9150610dd882610d97565b602082019050919050565b60006020820190508181036000830152610dfc81610dc0565b9050919050565b6000606082019050610e186000830186610cd7565b610e256020830185610cd7565b610e326040830184610bda565b949350505050565b610e4381610d01565b8114610e4e57600080fd5b50565b600081519050610e6081610e3a565b92915050565b600060208284031215610e7c57610e7b610b40565b5b6000610e8a84828501610e51565b91505092915050565b7f4e487b7100000000000000000000000000000000000000000000000000000000600052601160045260246000fd5b6000610ecd82610bd0565b9150610ed883610bd0565b9250828201905080821115610ef057610eef610e93565b5b92915050565b7f616d6f756e742068617320746f206265206d6f7265207468616e203000000000600082015250565b6000610f2c601c83610a99565b9150610f3782610ef6565b602082019050919050565b60006020820190508181036000830152610f5b81610f1f565b9050919050565b6000604082019050610f776000830185610cd7565b610f846020830184610bda565b9392505050565b6000610f9682610bd0565b9150610fa183610bd0565b9250828203905081811115610fb957610fb8610e93565b5b92915050565b7f4f6e6c7920636f6e74726163742063726561746f722063616e2072656469737460008201527f7269627574650000000000000000000000000000000000000000000000000000602082015250565b600061101b602683610a99565b915061102682610fbf565b604082019050919050565b6000602082019050818103600083015261104a8161100e565b9050919050565b7f4e487b7100000000000000000000000000000000000000000000000000000000600052603260045260246000fd5b600061108b82610bd0565b915061109683610bd0565b92508282026110a481610bd0565b915082820484148315176110bb576110ba610e93565b5b5092915050565b7f4e487b7100000000000000000000000000000000000000000000000000000000600052601260045260246000fd5b60006110fc82610bd0565b915061110783610bd0565b925082611117576111166110c2565b5b828204905092915050565b600061112d82610bd0565b91507fffffffffffffffffffffffffffffffffffffffffffffffffffffffffffffffff820361115f5761115e610e93565b5b60018201905091905056fea264697066735822122055dc70e46dcc5f8f2ff617942cd03964c75d113b8ab30b63e3efe53f355388d864736f6c63430008110033",
  "linkReferences": {},
  "deployedLinkReferences": {}
}